{
  "contractName": "Controller",
  "abi": [
    {
      "constant": true,
      "inputs": [
        {
          "name": "",
          "type": "bytes32"
        }
      ],
      "name": "genres",
      "outputs": [
        {
          "name": "gName",
          "type": "bytes32"
        }
      ],
      "payable": false,
      "stateMutability": "view",
      "type": "function"
    },
    {
      "inputs": [],
      "payable": false,
      "stateMutability": "nonpayable",
      "type": "constructor"
    },
    {
      "constant": false,
      "inputs": [
        {
          "name": "words",
          "type": "bytes32"
        },
        {
          "name": "genre",
          "type": "bytes32"
        },
        {
          "name": "story",
          "type": "bytes32"
        }
      ],
      "name": "addExcerpt",
      "outputs": [],
      "payable": false,
      "stateMutability": "nonpayable",
      "type": "function"
    },
    {
      "constant": true,
      "inputs": [
        {
          "name": "gName",
          "type": "bytes32"
        }
      ],
      "name": "getStories",
      "outputs": [
        {
          "name": "",
          "type": "bytes32[]"
        }
      ],
      "payable": false,
      "stateMutability": "view",
      "type": "function"
    },
    {
      "constant": false,
      "inputs": [
        {
          "name": "gName",
          "type": "bytes32"
        },
        {
          "name": "sName",
          "type": "bytes32"
        }
      ],
      "name": "createStory",
      "outputs": [],
      "payable": false,
      "stateMutability": "nonpayable",
      "type": "function"
    },
    {
      "constant": false,
      "inputs": [
        {
          "name": "gName",
          "type": "bytes32"
        },
        {
          "name": "sName",
          "type": "bytes32"
        }
      ],
      "name": "getStory",
      "outputs": [
        {
          "name": "",
          "type": "bytes32"
        },
        {
          "name": "",
          "type": "bytes32[]"
        }
      ],
      "payable": false,
      "stateMutability": "nonpayable",
      "type": "function"
    }
  ],
  "bytecode": "0x608060405234801561001057600080fd5b506000806000807f536369656e63652046696374696f6e0000000000000000000000000000000000846000018160001916905550836000807f536369656e63652046696374696f6e00000000000000000000000000000000006000191681526020019081526020016000206000820154816000019060001916905560038201816003019080546100a1929190610258565b509050507f46616e7461737900000000000000000000000000000000000000000000000000836000018160001916905550826000807f46616e746173790000000000000000000000000000000000000000000000000060001916815260200190815260200160002060008201548160000190600019169055600382018160030190805461012f929190610258565b509050507f416476656e747572650000000000000000000000000000000000000000000000826000018160001916905550816000807f416476656e7475726500000000000000000000000000000000000000000000006000191681526020019081526020016000206000820154816000019060001916905560038201816003019080546101bd929190610258565b509050507f45726f7469636100000000000000000000000000000000000000000000000000816000018160001916905550806000807f45726f746963610000000000000000000000000000000000000000000000000060001916815260200190815260200160002060008201548160000190600019169055600382018160030190805461024b929190610258565b50905050505050506102cf565b8280548282559060005260206000209081019282156102995760005260206000209182015b8281111561029857825482559160010191906001019061027d565b5b5090506102a691906102aa565b5090565b6102cc91905b808211156102c85760008160009055506001016102b0565b5090565b90565b6106e2806102de6000396000f30060806040526004361061006d576000357c0100000000000000000000000000000000000000000000000000000000900463ffffffff1680635b3ac14114610072578063674d1df5146100bf57806378f3ecef14610162578063dec35ada146101e8578063f1fe284014610235575b600080fd5b34801561007e57600080fd5b506100a16004803603810190808035600019169060200190929190505050610274565b60405180826000191660001916815260200191505060405180910390f35b3480156100cb57600080fd5b506100fc60048036038101908080356000191690602001909291908035600019169060200190929190505050610292565b60405180836000191660001916815260200180602001828103825283818151815260200191508051906020019060200280838360005b8381101561014d578082015181840152602081019050610132565b50505050905001935050505060405180910390f35b34801561016e57600080fd5b506101916004803603810190808035600019169060200190929190505050610368565b6040518080602001828103825283818151815260200191508051906020019060200280838360005b838110156101d45780820151818401526020810190506101b9565b505050509050019250505060405180910390f35b3480156101f457600080fd5b506102336004803603810190808035600019169060200190929190803560001916906020019092919080356000191690602001909291905050506103e1565b005b34801561024157600080fd5b506102726004803603810190808035600019169060200190929190803560001916906020019092919050505061045a565b005b60006020528060005260406000206000915090508060000154905081565b6000606061029e610622565b6000808660001916600019168152602001908152602001600020600101600085600019166000191681526020019081526020016000206040805190810160405290816000820154600019166000191681526020016001820180548060200260200160405190810160405280929190818152602001828054801561034457602002820191906000526020600020905b8154600019168152602001906001019080831161032c575b50505050508152505090508060000151816020015180905092509250509250929050565b606060008083600019166000191681526020019081526020016000206003018054806020026020016040519081016040528092919081815260200182805480156103d557602002820191906000526020600020905b815460001916815260200190600101908083116103bd575b50505050509050919050565b6000806000808560001916600019168152602001908152602001600020915081600101600084600019166000191681526020019081526020016000209050806001018590806001815401808255809150509060018203906000526020600020016000909192909190915090600019169055505050505050565b600080600084600019166000191681526020019081526020016000206002016000836000191660001916815260200190815260200160002060009054906101000a900460ff1615610513576040517f08c379a00000000000000000000000000000000000000000000000000000000081526004018080602001828103825260118152602001807f53746f7279206e616d652065786973747300000000000000000000000000000081525060200191505060405180910390fd5b6000808460001916600019168152602001908152602001600020600301829080600181540180825580915050906001820390600052602060002001600090919290919091509060001916905550600160008085600019166000191681526020019081526020016000206002016000846000191660001916815260200190815260200160002060006101000a81548160ff021916908315150217905550818160000181600019169055508060008085600019166000191681526020019081526020016000206001016000846000191660001916815260200190815260200160002060008201548160000190600019169055600182018160010190805461061992919061063f565b50905050505050565b604080519081016040528060008019168152602001606081525090565b8280548282559060005260206000209081019282156106805760005260206000209182015b8281111561067f578254825591600101919060010190610664565b5b50905061068d9190610691565b5090565b6106b391905b808211156106af576000816000905550600101610697565b5090565b905600a165627a7a72305820451cb0145c3c8470b272046ed48008aa80b2b0ee30835b95cece646c5b88ef540029",
  "source": "pragma solidity 0.4.24;\n\ncontract Controller {\n\n    mapping(bytes32 => Genre) public genres;\n    \n    constructor() public {\n        Genre storage sf;\n        sf.gName = \"Science Fiction\";\n        genres[\"Science Fiction\"] = sf;\n        Genre storage f;\n        f.gName = \"Fantasy\";\n        genres[\"Fantasy\"] = f;\n        Genre storage a;\n        a.gName = \"Adventure\";\n        genres[\"Adventure\"] = a;\n        Genre storage e;\n        e.gName = \"Erotica\";\n        genres[\"Erotica\"] = e;\n\n    }\n    \n\n    function addExcerpt (bytes32 words, bytes32 genre, bytes32 story) public {\n        Genre _g = genres[genre];\n        Story _s = _g.stories[story];\n        _s.excerpts.push(words);\n    }\n\n    function getStories(bytes32 gName) public view returns (bytes32[]) {\n        return genres[gName].sNames;\n    }\n\n    function createStory(bytes32 gName, bytes32 sName)  {\n        if(genres[gName].storyNames[sName]) revert(\"Story name exists\");\n\n        genres[gName].sNames.push(sName);\n\n        genres[gName].storyNames[sName] = true;\n\n        Story storage _s;\n        _s.sName = sName;\n        genres[gName].stories[sName] = _s;\n    }\n\n    function getStory(bytes32 gName, bytes32 sName) returns (bytes32,bytes32[]) {\n        Story memory s = genres[gName].stories[sName];\n        return (s.sName,s.excerpts);\n    }\n\n    struct Genre {\n        bytes32 gName;\n        mapping(bytes32 => Story) stories;\n        mapping(bytes32 => bool) storyNames;\n        bytes32[] sNames;\n    }\n\n    struct Story {\n        bytes32 sName;\n        bytes32[] excerpts;\n    }\n\n}\n\n",
  "sourcePath": "/home/joseph/blockchain-module/dapp/experimentation/dappuni/contracts/Controller.sol",
  "compiler": {
    "name": "solc",
    "version": "0.4.24+commit.e67f0147.Emscripten.clang"
  },
  "schemaVersion": "2.0.1",
  "updatedAt": "2018-10-23T17:07:53.236Z"
}