{
  "contractName": "Controller",
  "abi": [
    {
      "constant": true,
      "inputs": [
        {
          "name": "",
          "type": "bytes32"
        }
      ],
      "name": "genres",
      "outputs": [
        {
          "name": "gName",
          "type": "bytes32"
        }
      ],
      "payable": false,
      "stateMutability": "view",
      "type": "function"
    },
    {
      "inputs": [],
      "payable": false,
      "stateMutability": "nonpayable",
      "type": "constructor"
    },
    {
      "constant": false,
      "inputs": [
        {
          "name": "words",
          "type": "bytes32"
        },
        {
          "name": "genre",
          "type": "bytes32"
        },
        {
          "name": "story",
          "type": "bytes32"
        }
      ],
      "name": "addExcerpt",
      "outputs": [],
      "payable": false,
      "stateMutability": "nonpayable",
      "type": "function"
    },
    {
      "constant": true,
      "inputs": [
        {
          "name": "gName",
          "type": "bytes32"
        }
      ],
      "name": "getStories",
      "outputs": [
        {
          "name": "",
          "type": "bytes32[]"
        }
      ],
      "payable": false,
      "stateMutability": "view",
      "type": "function"
    },
    {
      "constant": false,
      "inputs": [
        {
          "name": "gName",
          "type": "bytes32"
        },
        {
          "name": "sName",
          "type": "bytes32"
        }
      ],
      "name": "createStory",
      "outputs": [],
      "payable": false,
      "stateMutability": "nonpayable",
      "type": "function"
    },
    {
      "constant": true,
      "inputs": [
        {
          "name": "gName",
          "type": "bytes32"
        },
        {
          "name": "sName",
          "type": "bytes32"
        }
      ],
      "name": "getExcerpts",
      "outputs": [
        {
          "name": "",
          "type": "bytes32[]"
        }
      ],
      "payable": false,
      "stateMutability": "view",
      "type": "function"
    }
  ],
  "bytecode": "0x608060405234801561001057600080fd5b506000806000807f536369656e63652046696374696f6e0000000000000000000000000000000000846000018160001916905550836000807f536369656e63652046696374696f6e00000000000000000000000000000000006000191681526020019081526020016000206000820154816000019060001916905560038201816003019080546100a1929190610258565b509050507f46616e7461737900000000000000000000000000000000000000000000000000836000018160001916905550826000807f46616e746173790000000000000000000000000000000000000000000000000060001916815260200190815260200160002060008201548160000190600019169055600382018160030190805461012f929190610258565b509050507f416476656e747572650000000000000000000000000000000000000000000000826000018160001916905550816000807f416476656e7475726500000000000000000000000000000000000000000000006000191681526020019081526020016000206000820154816000019060001916905560038201816003019080546101bd929190610258565b509050507f45726f7469636100000000000000000000000000000000000000000000000000816000018160001916905550806000807f45726f746963610000000000000000000000000000000000000000000000000060001916815260200190815260200160002060008201548160000190600019169055600382018160030190805461024b929190610258565b50905050505050506102cf565b8280548282559060005260206000209081019282156102995760005260206000209182015b8281111561029857825482559160010191906001019061027d565b5b5090506102a691906102aa565b5090565b6102cc91905b808211156102c85760008160009055506001016102b0565b5090565b90565b610712806102de6000396000f30060806040526004361061006d576000357c0100000000000000000000000000000000000000000000000000000000900463ffffffff1680635b3ac1411461007257806378f3ecef146100bf57806382851ff514610145578063dec35ada146101d9578063f1fe284014610226575b600080fd5b34801561007e57600080fd5b506100a16004803603810190808035600019169060200190929190505050610265565b60405180826000191660001916815260200191505060405180910390f35b3480156100cb57600080fd5b506100ee6004803603810190808035600019169060200190929190505050610283565b6040518080602001828103825283818151815260200191508051906020019060200280838360005b83811015610131578082015181840152602081019050610116565b505050509050019250505060405180910390f35b34801561015157600080fd5b50610182600480360381019080803560001916906020019092919080356000191690602001909291905050506102fc565b6040518080602001828103825283818151815260200191508051906020019060200280838360005b838110156101c55780820151818401526020810190506101aa565b505050509050019250505060405180910390f35b3480156101e557600080fd5b50610224600480360381019080803560001916906020019092919080356000191690602001909291908035600019169060200190929190505050610392565b005b34801561023257600080fd5b506102636004803603810190808035600019169060200190929190803560001916906020019092919050505061040b565b005b60006020528060005260406000206000915090508060000154905081565b606060008083600019166000191681526020019081526020016000206003018054806020026020016040519081016040528092919081815260200182805480156102f057602002820191906000526020600020905b815460001916815260200190600101908083116102d8575b50505050509050919050565b606060008084600019166000191681526020019081526020016000206001016000836000191660001916815260200190815260200160002060010180548060200260200160405190810160405280929190818152602001828054801561038557602002820191906000526020600020905b8154600019168152602001906001019080831161036d575b5050505050905092915050565b6000806000808560001916600019168152602001908152602001600020915081600101600084600019166000191681526020019081526020016000209050806001018590806001815401808255809150509060018203906000526020600020016000909192909190915090600019169055505050505050565b600080600084600019166000191681526020019081526020016000206002016000836000191660001916815260200190815260200160002060009054906101000a900460ff16156104c4576040517f08c379a00000000000000000000000000000000000000000000000000000000081526004018080602001828103825260118152602001807f53746f7279206e616d652065786973747300000000000000000000000000000081525060200191505060405180910390fd5b6000808460001916600019168152602001908152602001600020600301829080600181540180825580915050906001820390600052602060002001600090919290919091509060001916905550600160008085600019166000191681526020019081526020016000206002016000846000191660001916815260200190815260200160002060006101000a81548160ff02191690831515021790555081816000018160001916905550600060405190808252806020026020018201604052801561059d5781602001602082028038833980820191505090505b508160010190805190602001906105b592919061061c565b508060008085600019166000191681526020019081526020016000206001016000846000191660001916815260200190815260200160002060008201548160000190600019169055600182018160010190805461061392919061066f565b50905050505050565b82805482825590600052602060002090810192821561065e579160200282015b8281111561065d57825182906000191690559160200191906001019061063c565b5b50905061066b91906106c1565b5090565b8280548282559060005260206000209081019282156106b05760005260206000209182015b828111156106af578254825591600101919060010190610694565b5b5090506106bd91906106c1565b5090565b6106e391905b808211156106df5760008160009055506001016106c7565b5090565b905600a165627a7a7230582020327c07b7d5f301dc579b51cad21871194edd24031fbc1137b6cad61c7569380029",
  "source": "pragma solidity 0.4.24;\n\ncontract Controller {\n\n    mapping(bytes32 => Genre) public genres;\n\n    constructor() public {\n        Genre storage sf;\n        sf.gName = \"Science Fiction\";\n        genres[\"Science Fiction\"] = sf;\n        Genre storage f;\n        f.gName = \"Fantasy\";\n        genres[\"Fantasy\"] = f;\n        Genre storage a;\n        a.gName = \"Adventure\";\n        genres[\"Adventure\"] = a;\n        Genre storage e;\n        e.gName = \"Erotica\";\n        genres[\"Erotica\"] = e;\n\n    }\n\n\n    function addExcerpt (bytes32 words, bytes32 genre, bytes32 story) public {\n        Genre _g = genres[genre];\n        Story _s = _g.stories[story];\n        _s.excerpts.push(words);\n    }\n\n    function getStories(bytes32 gName) public view returns (bytes32[]) {\n        return genres[gName].sNames;\n    }\n\n    function createStory(bytes32 gName, bytes32 sName) public {\n        if(genres[gName].storyNames[sName]) revert(\"Story name exists\");\n\n        genres[gName].sNames.push(sName);\n\n        genres[gName].storyNames[sName] = true;\n\n        Story storage _s;\n        _s.sName = sName;\n        _s.excerpts = new bytes32[](0);\n        genres[gName].stories[sName] = _s;\n    }\n\n    function getExcerpts(bytes32 gName, bytes32 sName) public view returns (bytes32[]) {\n        // Story memory s = genres[gName].stories[sName];\n        return genres[gName].stories[sName].excerpts;\n    }\n\n    struct Genre {\n        bytes32 gName;\n        mapping(bytes32 => Story) stories;\n        mapping(bytes32 => bool) storyNames;\n        bytes32[] sNames;\n    }\n\n    struct Story {\n        bytes32 sName;\n        bytes32[] excerpts;\n    }\n\n}\n",
  "sourcePath": "/home/joseph/blockchain-module/infinibook/experimentation/dappuni/contracts/Controller.sol",
  "compiler": {
    "name": "solc",
    "version": "0.4.24+commit.e67f0147.Emscripten.clang"
  },
  "schemaVersion": "2.0.1",
  "updatedAt": "2018-10-24T07:42:33.611Z"
}