{
  "contractName": "Excerpt",
  "abi": [
    {
      "constant": true,
      "inputs": [],
      "name": "words",
      "outputs": [
        {
          "name": "",
          "type": "bytes32"
        }
      ],
      "payable": false,
      "stateMutability": "view",
      "type": "function"
    },
    {
      "inputs": [
        {
          "name": "w",
          "type": "bytes32"
        }
      ],
      "payable": false,
      "stateMutability": "nonpayable",
      "type": "constructor"
    },
    {
      "constant": true,
      "inputs": [],
      "name": "getWords",
      "outputs": [
        {
          "name": "",
          "type": "bytes32"
        }
      ],
      "payable": false,
      "stateMutability": "view",
      "type": "function"
    }
  ],
  "bytecode": "0x608060405234801561001057600080fd5b506040516020806101368339810180604052810190808051906020019092919050505080600081600019169055505060e98061004d6000396000f3006080604052600436106049576000357c0100000000000000000000000000000000000000000000000000000000900463ffffffff168063dca7bcbe14604e578063f2c31bd914607e575b600080fd5b348015605957600080fd5b50606060ae565b60405180826000191660001916815260200191505060405180910390f35b348015608957600080fd5b50609060b7565b60405180826000191660001916815260200191505060405180910390f35b60008054905090565b600054815600a165627a7a72305820e1604423173dcba0bcc07f3d525ef5252f7215df94f55137e2ee51005e5e43840029",
  "source": "pragma solidity 0.4.24;\n\ncontract Controller {\n\n    mapping(bytes32 => Genre) public genres;\n    \n    constructor() public {\n        genres[\"Science Fiction\"] = new Genre(\"Science Fiction\");\n        genres[\"Fantasy\"] = new Genre(\"Fantasy\");\n        genres[\"Adventure\"] = new Genre(\"Adventure\");\n        genres[\"Erotica\"] = new Genre(\"Erotica\");\n    }\n    \n    function getGenre(bytes32 name) public view returns (Genre) {\n        return genres[name];\n    }\n\n    function addExcerpt (bytes32 words, bytes32 genre, bytes32 story) public {\n        Genre _g = genres[genre];\n        Story _s = _g.getStory(story);\n        _s.addWords(words);\n    }\n    \n    // function createStory(bytes32 gname, bytes32 sname) public returns (Story) {\n    //     return genres[gname].createStory(sname);\n    // }\n\n    // function getStories(bytes32 gname) public view returns (bytes32[]) {\n    //     return genres[gname].getStories();\n    // }\n}\n\ncontract Genre {\n    \n    bytes32 public name;\n    \n    constructor (bytes32 n) public {\n        name = n;\n    }\n    \n    mapping(bytes32 => Story) public stories;\n    mapping(bytes32 => bool) public storyNames;\n    bytes32[] snames;\n\n    function createStory(bytes32 sname) public returns (Story) {\n        if(storyNames[sname]) revert(\"Story name exists\");\n\n        snames.push(sname);\n\n        storyNames[sname] = true;\n\n        stories[sname] = new Story();\n        return stories[sname];\n    }\n\n    function getStory(bytes32 sname) public view returns (Story) {\n        return stories[sname];\n    }\n\n    function getStories() public view returns (bytes32[]) {\n        return snames;\n    }\n}\ncontract Story {\n\n    address[] excerpts;\n\n    constructor () public {\n    }\n    \n    function addWords (bytes32 _words) public {\n        address newExcerpt = new Excerpt(_words);\n        excerpts.push(newExcerpt);\n    }\n    \n    function getExcerpts() public view returns (address[]) {\n        return excerpts;\n    }\n}\ncontract Excerpt {\n\n    bytes32 public words;\n\n    constructor (bytes32 w) public {\n        words = w;\n    }\n\n    function getWords() public view returns (bytes32) {\n        return words;\n    }\n}\n",
  "sourcePath": "/home/joseph/blockchain-module/dapp/experimentation/dappuni/contracts/Controller.sol",
  "compiler": {
    "name": "solc",
    "version": "0.4.24+commit.e67f0147.Emscripten.clang"
  },
  "schemaVersion": "2.0.1",
  "updatedAt": "2018-10-23T12:48:50.998Z"
}