{
  "contractName": "Genre",
  "abi": [
    {
      "constant": true,
      "inputs": [],
      "name": "name",
      "outputs": [
        {
          "name": "",
          "type": "bytes32"
        }
      ],
      "payable": false,
      "stateMutability": "view",
      "type": "function"
    },
    {
      "constant": true,
      "inputs": [
        {
          "name": "",
          "type": "bytes32"
        }
      ],
      "name": "storyNames",
      "outputs": [
        {
          "name": "",
          "type": "bool"
        }
      ],
      "payable": false,
      "stateMutability": "view",
      "type": "function"
    },
    {
      "constant": true,
      "inputs": [
        {
          "name": "",
          "type": "bytes32"
        }
      ],
      "name": "stories",
      "outputs": [
        {
          "name": "",
          "type": "address"
        }
      ],
      "payable": false,
      "stateMutability": "view",
      "type": "function"
    },
    {
      "inputs": [
        {
          "name": "n",
          "type": "bytes32"
        }
      ],
      "payable": false,
      "stateMutability": "nonpayable",
      "type": "constructor"
    },
    {
      "constant": false,
      "inputs": [
        {
          "name": "sname",
          "type": "bytes32"
        }
      ],
      "name": "createStory",
      "outputs": [
        {
          "name": "",
          "type": "address"
        }
      ],
      "payable": false,
      "stateMutability": "nonpayable",
      "type": "function"
    },
    {
      "constant": true,
      "inputs": [
        {
          "name": "sname",
          "type": "bytes32"
        }
      ],
      "name": "getStory",
      "outputs": [
        {
          "name": "",
          "type": "address"
        }
      ],
      "payable": false,
      "stateMutability": "view",
      "type": "function"
    },
    {
      "constant": true,
      "inputs": [],
      "name": "getStories",
      "outputs": [
        {
          "name": "",
          "type": "bytes32[]"
        }
      ],
      "payable": false,
      "stateMutability": "view",
      "type": "function"
    }
  ],
  "bytecode": "0x608060405234801561001057600080fd5b506040516020806109b5833981018060405281019080805190602001909291905050508060008160001916905550506109678061004e6000396000f300608060405260043610610078576000357c0100000000000000000000000000000000000000000000000000000000900463ffffffff168063067084b01461007d57806306fdde03146100ee578063434449d014610121578063582b1e731461018d5780638e3ce9b9146101d6578063b5a58c8e14610247575b600080fd5b34801561008957600080fd5b506100ac60048036038101908080356000191690602001909291905050506102b8565b604051808273ffffffffffffffffffffffffffffffffffffffff1673ffffffffffffffffffffffffffffffffffffffff16815260200191505060405180910390f35b3480156100fa57600080fd5b5061010361047d565b60405180826000191660001916815260200191505060405180910390f35b34801561012d57600080fd5b50610136610483565b6040518080602001828103825283818151815260200191508051906020019060200280838360005b8381101561017957808201518184015260208101905061015e565b505050509050019250505060405180910390f35b34801561019957600080fd5b506101bc60048036038101908080356000191690602001909291905050506104df565b604051808215151515815260200191505060405180910390f35b3480156101e257600080fd5b5061020560048036038101908080356000191690602001909291905050506104ff565b604051808273ffffffffffffffffffffffffffffffffffffffff1673ffffffffffffffffffffffffffffffffffffffff16815260200191505060405180910390f35b34801561025357600080fd5b506102766004803603810190808035600019169060200190929190505050610532565b604051808273ffffffffffffffffffffffffffffffffffffffff1673ffffffffffffffffffffffffffffffffffffffff16815260200191505060405180910390f35b600060026000836000191660001916815260200190815260200160002060009054906101000a900460ff1615610356576040517f08c379a00000000000000000000000000000000000000000000000000000000081526004018080602001828103825260118152602001807f53746f7279206e616d652065786973747300000000000000000000000000000081525060200191505060405180910390fd5b6003829080600181540180825580915050906001820390600052602060002001600090919290919091509060001916905550600160026000846000191660001916815260200190815260200160002060006101000a81548160ff0219169083151502179055506103c4610577565b604051809103906000f0801580156103e0573d6000803e3d6000fd5b5060016000846000191660001916815260200190815260200160002060006101000a81548173ffffffffffffffffffffffffffffffffffffffff021916908373ffffffffffffffffffffffffffffffffffffffff16021790555060016000836000191660001916815260200190815260200160002060009054906101000a900473ffffffffffffffffffffffffffffffffffffffff169050919050565b60005481565b606060038054806020026020016040519081016040528092919081815260200182805480156104d557602002820191906000526020600020905b815460001916815260200190600101908083116104bd575b5050505050905090565b60026020528060005260406000206000915054906101000a900460ff1681565b60016020528060005260406000206000915054906101000a900473ffffffffffffffffffffffffffffffffffffffff1681565b600060016000836000191660001916815260200190815260200160002060009054906101000a900473ffffffffffffffffffffffffffffffffffffffff169050919050565b6040516103b480610588833901905600608060405234801561001057600080fd5b50610394806100206000396000f30060806040526004361061004c576000357c0100000000000000000000000000000000000000000000000000000000900463ffffffff16806327261a1d14610051578063b90c118d14610082575b600080fd5b34801561005d57600080fd5b5061008060048036038101908080356000191690602001909291905050506100ee565b005b34801561008e57600080fd5b50610097610194565b6040518080602001828103825283818151815260200191508051906020019060200280838360005b838110156100da5780820151818401526020810190506100bf565b505050509050019250505060405180910390f35b6000816100f9610222565b808260001916600019168152602001915050604051809103906000f080158015610127573d6000803e3d6000fd5b50905060008190806001815401808255809150509060018203906000526020600020016000909192909190916101000a81548173ffffffffffffffffffffffffffffffffffffffff021916908373ffffffffffffffffffffffffffffffffffffffff160217905550505050565b6060600080548060200260200160405190810160405280929190818152602001828054801561021857602002820191906000526020600020905b8160009054906101000a900473ffffffffffffffffffffffffffffffffffffffff1673ffffffffffffffffffffffffffffffffffffffff16815260200190600101908083116101ce575b5050505050905090565b60405161013680610233833901905600608060405234801561001057600080fd5b506040516020806101368339810180604052810190808051906020019092919050505080600081600019169055505060e98061004d6000396000f3006080604052600436106049576000357c0100000000000000000000000000000000000000000000000000000000900463ffffffff168063dca7bcbe14604e578063f2c31bd914607e575b600080fd5b348015605957600080fd5b50606060ae565b60405180826000191660001916815260200191505060405180910390f35b348015608957600080fd5b50609060b7565b60405180826000191660001916815260200191505060405180910390f35b60008054905090565b600054815600a165627a7a72305820e1604423173dcba0bcc07f3d525ef5252f7215df94f55137e2ee51005e5e43840029a165627a7a723058202a12ce9d20cfa94fa4ec39b7769a7412f4c9369af43e18aa02b62856bf8eda800029a165627a7a723058201ff94fc9b6ed2de0245207c3b3e0231557d40f305d1799be31215a76b274637a0029",
  "source": "pragma solidity 0.4.24;\n\ncontract Controller {\n\n    mapping(bytes32 => Genre) public genres;\n    \n    constructor() public {\n        genres[\"Science Fiction\"] = new Genre(\"Science Fiction\");\n        genres[\"Fantasy\"] = new Genre(\"Fantasy\");\n        genres[\"Adventure\"] = new Genre(\"Adventure\");\n        genres[\"Erotica\"] = new Genre(\"Erotica\");\n    }\n    \n    function getGenre(bytes32 name) public view returns (Genre) {\n        return genres[name];\n    }\n\n    function addExcerpt (bytes32 words, bytes32 genre, bytes32 story) public {\n        Genre _g = genres[genre];\n        Story _s = _g.getStory(story);\n        _s.addWords(words);\n    }\n    \n    // function createStory(bytes32 gname, bytes32 sname) public returns (Story) {\n    //     return genres[gname].createStory(sname);\n    // }\n\n    // function getStories(bytes32 gname) public view returns (bytes32[]) {\n    //     return genres[gname].getStories();\n    // }\n}\n\ncontract Genre {\n    \n    bytes32 public name;\n    \n    constructor (bytes32 n) public {\n        name = n;\n    }\n    \n    mapping(bytes32 => Story) public stories;\n    mapping(bytes32 => bool) public storyNames;\n    bytes32[] snames;\n\n    function createStory(bytes32 sname) public returns (Story) {\n        if(storyNames[sname]) revert(\"Story name exists\");\n\n        snames.push(sname);\n\n        storyNames[sname] = true;\n\n        stories[sname] = new Story();\n        return stories[sname];\n    }\n\n    function getStory(bytes32 sname) public view returns (Story) {\n        return stories[sname];\n    }\n\n    function getStories() public view returns (bytes32[]) {\n        return snames;\n    }\n}\ncontract Story {\n\n    address[] excerpts;\n\n    constructor () public {\n    }\n    \n    function addWords (bytes32 _words) public {\n        address newExcerpt = new Excerpt(_words);\n        excerpts.push(newExcerpt);\n    }\n    \n    function getExcerpts() public view returns (address[]) {\n        return excerpts;\n    }\n}\ncontract Excerpt {\n\n    bytes32 public words;\n\n    constructor (bytes32 w) public {\n        words = w;\n    }\n\n    function getWords() public view returns (bytes32) {\n        return words;\n    }\n}\n",
  "sourcePath": "/home/joseph/blockchain-module/dapp/experimentation/dappuni/contracts/Controller.sol",
  "compiler": {
    "name": "solc",
    "version": "0.4.24+commit.e67f0147.Emscripten.clang"
  },
  "schemaVersion": "2.0.1",
  "updatedAt": "2018-10-23T12:48:50.990Z"
}